:020000040000FA
:04000000FEEFFFF020
:020000040001F9
:10FF2400000195EFFFF000F0000E0401006F000ED9
:10FF3400106F000E186F209320950899C668C86842
:10FF4400000EC96EC7880989CA92CA9400F0CE50BF
:10FF5400D024066ED8B0B1EFFFF0B4EFFFF0010E7D
:10FF6400B5EFFFF0000E046ED8B6BBEFFFF0BEEFA6
:10FF7400FFF0010EBFEFFFF0000E026ED050CE5C1A
:10FF8400056ED8B0C8EFFFF0CBEFFFF0010ECCEF59
:10FF9400FFF0000E036ED8B6D2EFFFF0D5EFFFF0FE
:10FFA400010ED6EFFFF0000E016ECFA8DCEFFFF0DC
:10FFB400DEEFFFF0EDEFFFF0610018F4D1F404B0D0
:10FFC40002D0D29201D0D28202B002D0D29401D017
:10FFD400D284A8EFFFF0610014F4D1F403B002D08E
:10FFE400D29201D0D28201B002D0D29401D0D28474
:0CFFF400A8EFFFF0FEEFFFF092EFFFF02F
:020000040020DA
:10000000FF0FFF0FFF0FFF0FFF0FFF0FFF0FFF0F80
:10001000FF0FFF0FFF0FFF0FFF0FFF0FFF0FFF0F70
:020000040030CA
:0A0000008CD737DF9FFFFFFFFFFFE3
:00000001FF
